:100000000C9448000C9465000C9465000C946500F9
:100010000C9465000C9465000C9465000C946500CC
:100020000C9465000C9465000C9465000C946500BC
:100030000C9465000C9449010C9465000C946500C7
:100040000C9465000C9465000C9465000C9465009C
:100050000C9465004D41535445522067657374619B
:10006000727465742C2062697474652044617465CF
:100070006E206765666F6C677420766F6E20456EC4
:100080007465722065696E676562656E0D0A0000B1
:1000900011241FBECFE5D8E0DEBFCDBF11E0A0E642
:1000A000B0E0ECEFF3E002C005900D92AA30B1078A
:1000B000D9F711E0AAE0B1E001C01D92AC32B1075E
:1000C000E1F70E9467000C94FC010C9400000E9470
:1000D00070010E94E900789484E590E00E948D010F
:1000E00080911B018130E1F780E690E00E94810160
:1000F000C0E008C0EC2FF0E0E45EFE4F80810E947B
:100100007B01CF5F80910A01C817A0F38FE990E0CF
:100110000E94810180E50E94ED0081111DC084E8EC
:1001200090E00E94810180E00E942E0110E00BC04F
:10013000C12FD0E0C45EDE4F88810E942E018881ED
:100140000E947B011F5F80910A01181788F30E94AB
:1001500028018CE890E002C082EA90E00E948101D0
:1001600080E50E94ED0081112BC08AEC90E00E9496
:10017000810180E00E942E0181E50E94260110E0AD
:1001800016C0212F30E080910A0190E00197E9012B
:10019000C55FDE4F281739071CF40E943B0102C0DF
:1001A0000E944201888388810E947B011F5F8091A9
:1001B0000A01181730F30E9428018FE990E002C06D
:1001C00082EE90E00E94810110920A0110921B01C0
:1001D00087CF11B88CE080B9089594EA96BF06B62F
:1001E00007FEFDCF91B1987F983021F0903111F04A
:1001F00081E0089583B984E886BF06B607FEFDCF87
:1002000081B1887F883111F0803491F780E00895C2
:1002100024EA34E844E926BF06B607FEFDCF91B1D3
:10022000987F983011F09031B1F783B936BF06B698
:1002300007FEFDCF91B1987F903211F0983529F4E7
:1002400046BF06B604FCFDCFE6CF08950C94ED0042
:1002500084E986BF06B604FCFDCF089583B984E81F
:1002600086BF06B607FEFDCF91B1987F81E0983238
:1002700009F480E0089584EC86BF06B607FEFDCF42
:1002800083B1089584E886BF06B607FEFDCF83B12B
:1002900008951F920F920FB60F9211248F939F9380
:1002A000EF93FF939CB1E0910A01F0E0E45EFE4F12
:1002B000908380910A018F5F80930A019D3021F025
:1002C00080910A01803119F481E080931B01FF9134
:1002D000EF919F918F910F900FBE0F901F901895E7
:1002E0008AB188618AB980B5866880BD10BC83E315
:1002F00089B9579A08955D9BFECF8CB980E090E054
:100300000895CF93DF93EC0102C00E947B01899195
:100310008111FBCFDF91CF910895CF93DF93EC0153
:1003200002C00E947B01FE01219684918111F9CFC8
:10033000DF91CF910895CF93DF93CDB7DEB72897A4
:100340000FB6F894DEBF0FBECDBF4AE050E0BE014D
:100350006F5F7F4F0E94B7010E94810128960FB600
:10036000F894DEBF0FBECDBFDF91CF910895FB01A2
:100370009F01E8944230C4F04532B4F44A3029F485
:1003800097FB1EF4909581959F4F642F77270E94CD
:10039000E801805D8A330CF0895D8193CB01009781
:1003A000A1F716F45DE251931082C9010C94D801B3
:1003B000DC01FC01672F71917723E1F7329704C0CC
:1003C0007C916D9370836291AE17BF07C8F3089557
:1003D000AA1BBB1B51E107C0AA1FBB1FA617B7076B
:1003E00010F0A61BB70B881F991F5A95A9F7809587
:0C03F0009095BC01CD010895F894FFCF5A
:1003FC00466F6C67656E646520446174656E206140
:10040C006E20525332333220656D7066616E6765B3
:10041C006E3A2000446174656E3A200020616E20B3
:10042C00536C61766520676573656E6465742E0D1B
:10043C000A004665686C6572206265696D2073659B
:10044C006E64656E2064657220446174656E206113
:10045C006E20536C6176650D0A00446174656E20E4
:10046C00766F6E20536C617665206C6573656E3AA1
:10047C0020004665686C6572206265696D206C654C
:10048C0073656E2064657220446174656E20616EC4
:0A049C0020536C6176650D0A000024
:00000001FF
